{
  "contractName": "PatientRegistry",
  "abi": [
    {
      "inputs": [],
      "stateMutability": "nonpayable",
      "type": "constructor"
    },
    {
      "anonymous": false,
      "inputs": [
        {
          "indexed": true,
          "internalType": "uint256",
          "name": "id",
          "type": "uint256"
        },
        {
          "indexed": false,
          "internalType": "string",
          "name": "name",
          "type": "string"
        },
        {
          "indexed": false,
          "internalType": "uint256",
          "name": "age",
          "type": "uint256"
        },
        {
          "indexed": false,
          "internalType": "string",
          "name": "gender",
          "type": "string"
        },
        {
          "indexed": false,
          "internalType": "bool",
          "name": "vaccineStatus",
          "type": "bool"
        },
        {
          "indexed": false,
          "internalType": "string",
          "name": "district",
          "type": "string"
        },
        {
          "indexed": false,
          "internalType": "string",
          "name": "symptomsDetails",
          "type": "string"
        },
        {
          "indexed": false,
          "internalType": "bool",
          "name": "isDead",
          "type": "bool"
        }
      ],
      "name": "PatientAdded",
      "type": "event"
    },
    {
      "inputs": [
        {
          "internalType": "string",
          "name": "",
          "type": "string"
        }
      ],
      "name": "districtAgeSum",
      "outputs": [
        {
          "internalType": "uint256",
          "name": "",
          "type": "uint256"
        }
      ],
      "stateMutability": "view",
      "type": "function"
    },
    {
      "inputs": [
        {
          "internalType": "string",
          "name": "",
          "type": "string"
        }
      ],
      "name": "districtDeathCount",
      "outputs": [
        {
          "internalType": "uint256",
          "name": "",
          "type": "uint256"
        }
      ],
      "stateMutability": "view",
      "type": "function"
    },
    {
      "inputs": [
        {
          "internalType": "string",
          "name": "",
          "type": "string"
        }
      ],
      "name": "districtPatientCount",
      "outputs": [
        {
          "internalType": "uint256",
          "name": "",
          "type": "uint256"
        }
      ],
      "stateMutability": "view",
      "type": "function"
    },
    {
      "inputs": [],
      "name": "patientCount",
      "outputs": [
        {
          "internalType": "uint256",
          "name": "",
          "type": "uint256"
        }
      ],
      "stateMutability": "view",
      "type": "function"
    },
    {
      "inputs": [
        {
          "internalType": "uint256",
          "name": "",
          "type": "uint256"
        }
      ],
      "name": "patients",
      "outputs": [
        {
          "internalType": "uint256",
          "name": "id",
          "type": "uint256"
        },
        {
          "internalType": "string",
          "name": "name",
          "type": "string"
        },
        {
          "internalType": "uint256",
          "name": "age",
          "type": "uint256"
        },
        {
          "internalType": "string",
          "name": "gender",
          "type": "string"
        },
        {
          "internalType": "bool",
          "name": "vaccineStatus",
          "type": "bool"
        },
        {
          "internalType": "string",
          "name": "district",
          "type": "string"
        },
        {
          "internalType": "string",
          "name": "symptomsDetails",
          "type": "string"
        },
        {
          "internalType": "bool",
          "name": "isDead",
          "type": "bool"
        },
        {
          "internalType": "uint256",
          "name": "dateAdded",
          "type": "uint256"
        }
      ],
      "stateMutability": "view",
      "type": "function"
    },
    {
      "inputs": [
        {
          "internalType": "string",
          "name": "_name",
          "type": "string"
        },
        {
          "internalType": "uint256",
          "name": "_age",
          "type": "uint256"
        },
        {
          "internalType": "string",
          "name": "_gender",
          "type": "string"
        },
        {
          "internalType": "bool",
          "name": "_vaccineStatus",
          "type": "bool"
        },
        {
          "internalType": "string",
          "name": "_district",
          "type": "string"
        },
        {
          "internalType": "string",
          "name": "_symptomsDetails",
          "type": "string"
        },
        {
          "internalType": "bool",
          "name": "_isDead",
          "type": "bool"
        },
        {
          "internalType": "uint256",
          "name": "_dateAdded",
          "type": "uint256"
        }
      ],
      "name": "addPatient",
      "outputs": [],
      "stateMutability": "nonpayable",
      "type": "function"
    },
    {
      "inputs": [
        {
          "internalType": "uint256",
          "name": "_id",
          "type": "uint256"
        }
      ],
      "name": "getPatient",
      "outputs": [
        {
          "components": [
            {
              "internalType": "uint256",
              "name": "id",
              "type": "uint256"
            },
            {
              "internalType": "string",
              "name": "name",
              "type": "string"
            },
            {
              "internalType": "uint256",
              "name": "age",
              "type": "uint256"
            },
            {
              "internalType": "string",
              "name": "gender",
              "type": "string"
            },
            {
              "internalType": "bool",
              "name": "vaccineStatus",
              "type": "bool"
            },
            {
              "internalType": "string",
              "name": "district",
              "type": "string"
            },
            {
              "internalType": "string",
              "name": "symptomsDetails",
              "type": "string"
            },
            {
              "internalType": "bool",
              "name": "isDead",
              "type": "bool"
            },
            {
              "internalType": "uint256",
              "name": "dateAdded",
              "type": "uint256"
            }
          ],
          "internalType": "struct PatientRegistry.Patient",
          "name": "",
          "type": "tuple"
        }
      ],
      "stateMutability": "view",
      "type": "function"
    }
  ],
  "bytecode": "0x608060405234801561001057600080fd5b506000600181905550611588806100286000396000f3fe608060405234801561001057600080fd5b506004361061007d5760003560e01c8063a0303c411161005b578063a0303c411461011a578063c13bb96814610138578063c3b58fe314610168578063d4527408146101845761007d565b80637a28c315146100825780637d3a6796146100b257806393119a83146100e2575b600080fd5b61009c60048036038101906100979190610bb0565b6101b4565b6040516100a99190610c12565b60405180910390f35b6100cc60048036038101906100c79190610c59565b6101e2565b6040516100d99190610e09565b60405180910390f35b6100fc60048036038101906100f79190610c59565b6104fc565b60405161011199989796959493929190610e84565b60405180910390f35b610122610784565b60405161012f9190610c12565b60405180910390f35b610152600480360381019061014d9190610bb0565b61078a565b60405161015f9190610c12565b60405180910390f35b610182600480360381019061017d9190610f59565b6107b8565b005b61019e60048036038101906101999190610bb0565b6109d8565b6040516101ab9190610c12565b60405180910390f35b6002818051602081018201805184825260208301602085012081835280955050505050506000915090505481565b6101ea610a06565b6000821180156101fc57506001548211155b61023b576040517f08c379a0000000000000000000000000000000000000000000000000000000008152600401610232906110cb565b60405180910390fd5b60008083815260200190815260200160002060405180610120016040529081600082015481526020016001820180546102739061111a565b80601f016020809104026020016040519081016040528092919081815260200182805461029f9061111a565b80156102ec5780601f106102c1576101008083540402835291602001916102ec565b820191906000526020600020905b8154815290600101906020018083116102cf57829003601f168201915b505050505081526020016002820154815260200160038201805461030f9061111a565b80601f016020809104026020016040519081016040528092919081815260200182805461033b9061111a565b80156103885780601f1061035d57610100808354040283529160200191610388565b820191906000526020600020905b81548152906001019060200180831161036b57829003601f168201915b505050505081526020016004820160009054906101000a900460ff161515151581526020016005820180546103bc9061111a565b80601f01602080910402602001604051908101604052809291908181526020018280546103e89061111a565b80156104355780601f1061040a57610100808354040283529160200191610435565b820191906000526020600020905b81548152906001019060200180831161041857829003601f168201915b5050505050815260200160068201805461044e9061111a565b80601f016020809104026020016040519081016040528092919081815260200182805461047a9061111a565b80156104c75780601f1061049c576101008083540402835291602001916104c7565b820191906000526020600020905b8154815290600101906020018083116104aa57829003601f168201915b505050505081526020016007820160009054906101000a900460ff161515151581526020016008820154815250509050919050565b60006020528060005260406000206000915090508060000154908060010180546105259061111a565b80601f01602080910402602001604051908101604052809291908181526020018280546105519061111a565b801561059e5780601f106105735761010080835404028352916020019161059e565b820191906000526020600020905b81548152906001019060200180831161058157829003601f168201915b5050505050908060020154908060030180546105b99061111a565b80601f01602080910402602001604051908101604052809291908181526020018280546105e59061111a565b80156106325780601f1061060757610100808354040283529160200191610632565b820191906000526020600020905b81548152906001019060200180831161061557829003601f168201915b5050505050908060040160009054906101000a900460ff169080600501805461065a9061111a565b80601f01602080910402602001604051908101604052809291908181526020018280546106869061111a565b80156106d35780601f106106a8576101008083540402835291602001916106d3565b820191906000526020600020905b8154815290600101906020018083116106b657829003601f168201915b5050505050908060060180546106e89061111a565b80601f01602080910402602001604051908101604052809291908181526020018280546107149061111a565b80156107615780601f1061073657610100808354040283529160200191610761565b820191906000526020600020905b81548152906001019060200180831161074457829003601f168201915b5050505050908060070160009054906101000a900460ff16908060080154905089565b60015481565b6004818051602081018201805184825260208301602085012081835280955050505050506000915090505481565b600160008154809291906107cb9061117a565b9190505550604051806101200160405280600154815260200189815260200188815260200187815260200186151581526020018581526020018481526020018315158152602001828152506000806001548152602001908152602001600020600082015181600001556020820151816001019081610849919061136e565b50604082015181600201556060820151816003019081610869919061136e565b5060808201518160040160006101000a81548160ff02191690831515021790555060a082015181600501908161089f919061136e565b5060c08201518160060190816108b5919061136e565b5060e08201518160070160006101000a81548160ff02191690831515021790555061010082015181600801559050506002846040516108f4919061147c565b908152602001604051809103902060008154809291906109139061117a565b919050555086600385604051610929919061147c565b908152602001604051809103902060008282546109469190611493565b92505081905550811561098857600484604051610963919061147c565b908152602001604051809103902060008154809291906109829061117a565b91905055505b6001547f33d382ae52460617709337be20cf611816d5a375926aeb403284d374f0426292898989898989896040516109c697969594939291906114c7565b60405180910390a25050505050505050565b6003818051602081018201805184825260208301602085012081835280955050505050506000915090505481565b604051806101200160405280600081526020016060815260200160008152602001606081526020016000151581526020016060815260200160608152602001600015158152602001600081525090565b6000604051905090565b600080fd5b600080fd5b600080fd5b600080fd5b6000601f19601f8301169050919050565b7f4e487b7100000000000000000000000000000000000000000000000000000000600052604160045260246000fd5b610abd82610a74565b810181811067ffffffffffffffff82111715610adc57610adb610a85565b5b80604052505050565b6000610aef610a56565b9050610afb8282610ab4565b919050565b600067ffffffffffffffff821115610b1b57610b1a610a85565b5b610b2482610a74565b9050602081019050919050565b82818337600083830152505050565b6000610b53610b4e84610b00565b610ae5565b905082815260208101848484011115610b6f57610b6e610a6f565b5b610b7a848285610b31565b509392505050565b600082601f830112610b9757610b96610a6a565b5b8135610ba7848260208601610b40565b91505092915050565b600060208284031215610bc657610bc5610a60565b5b600082013567ffffffffffffffff811115610be457610be3610a65565b5b610bf084828501610b82565b91505092915050565b6000819050919050565b610c0c81610bf9565b82525050565b6000602082019050610c276000830184610c03565b92915050565b610c3681610bf9565b8114610c4157600080fd5b50565b600081359050610c5381610c2d565b92915050565b600060208284031215610c6f57610c6e610a60565b5b6000610c7d84828501610c44565b91505092915050565b610c8f81610bf9565b82525050565b600081519050919050565b600082825260208201905092915050565b60005b83811015610ccf578082015181840152602081019050610cb4565b60008484015250505050565b6000610ce682610c95565b610cf08185610ca0565b9350610d00818560208601610cb1565b610d0981610a74565b840191505092915050565b60008115159050919050565b610d2981610d14565b82525050565b600061012083016000830151610d486000860182610c86565b5060208301518482036020860152610d608282610cdb565b9150506040830151610d756040860182610c86565b5060608301518482036060860152610d8d8282610cdb565b9150506080830151610da26080860182610d20565b5060a083015184820360a0860152610dba8282610cdb565b91505060c083015184820360c0860152610dd48282610cdb565b91505060e0830151610de960e0860182610d20565b50610100830151610dfe610100860182610c86565b508091505092915050565b60006020820190508181036000830152610e238184610d2f565b905092915050565b600082825260208201905092915050565b6000610e4782610c95565b610e518185610e2b565b9350610e61818560208601610cb1565b610e6a81610a74565b840191505092915050565b610e7e81610d14565b82525050565b600061012082019050610e9a600083018c610c03565b8181036020830152610eac818b610e3c565b9050610ebb604083018a610c03565b8181036060830152610ecd8189610e3c565b9050610edc6080830188610e75565b81810360a0830152610eee8187610e3c565b905081810360c0830152610f028186610e3c565b9050610f1160e0830185610e75565b610f1f610100830184610c03565b9a9950505050505050505050565b610f3681610d14565b8114610f4157600080fd5b50565b600081359050610f5381610f2d565b92915050565b600080600080600080600080610100898b031215610f7a57610f79610a60565b5b600089013567ffffffffffffffff811115610f9857610f97610a65565b5b610fa48b828c01610b82565b9850506020610fb58b828c01610c44565b975050604089013567ffffffffffffffff811115610fd657610fd5610a65565b5b610fe28b828c01610b82565b9650506060610ff38b828c01610f44565b955050608089013567ffffffffffffffff81111561101457611013610a65565b5b6110208b828c01610b82565b94505060a089013567ffffffffffffffff81111561104157611040610a65565b5b61104d8b828c01610b82565b93505060c061105e8b828c01610f44565b92505060e061106f8b828c01610c44565b9150509295985092959890939650565b7f496e76616c69642070617469656e742049442e00000000000000000000000000600082015250565b60006110b5601383610e2b565b91506110c08261107f565b602082019050919050565b600060208201905081810360008301526110e4816110a8565b9050919050565b7f4e487b7100000000000000000000000000000000000000000000000000000000600052602260045260246000fd5b6000600282049050600182168061113257607f821691505b602082108103611145576111446110eb565b5b50919050565b7f4e487b7100000000000000000000000000000000000000000000000000000000600052601160045260246000fd5b600061118582610bf9565b91507fffffffffffffffffffffffffffffffffffffffffffffffffffffffffffffffff82036111b7576111b661114b565b5b600182019050919050565b60008190508160005260206000209050919050565b60006020601f8301049050919050565b600082821b905092915050565b6000600883026112247fffffffffffffffffffffffffffffffffffffffffffffffffffffffffffffffff826111e7565b61122e86836111e7565b95508019841693508086168417925050509392505050565b6000819050919050565b600061126b61126661126184610bf9565b611246565b610bf9565b9050919050565b6000819050919050565b61128583611250565b61129961129182611272565b8484546111f4565b825550505050565b600090565b6112ae6112a1565b6112b981848461127c565b505050565b5b818110156112dd576112d26000826112a6565b6001810190506112bf565b5050565b601f821115611322576112f3816111c2565b6112fc846111d7565b8101602085101561130b578190505b61131f611317856111d7565b8301826112be565b50505b505050565b600082821c905092915050565b600061134560001984600802611327565b1980831691505092915050565b600061135e8383611334565b9150826002028217905092915050565b61137782610c95565b67ffffffffffffffff8111156113905761138f610a85565b5b61139a825461111a565b6113a58282856112e1565b600060209050601f8311600181146113d857600084156113c6578287015190505b6113d08582611352565b865550611438565b601f1984166113e6866111c2565b60005b8281101561140e578489015182556001820191506020850194506020810190506113e9565b8683101561142b5784890151611427601f891682611334565b8355505b6001600288020188555050505b505050505050565b600081905092915050565b600061145682610c95565b6114608185611440565b9350611470818560208601610cb1565b80840191505092915050565b6000611488828461144b565b915081905092915050565b600061149e82610bf9565b91506114a983610bf9565b92508282019050808211156114c1576114c061114b565b5b92915050565b600060e08201905081810360008301526114e1818a610e3c565b90506114f06020830189610c03565b81810360408301526115028188610e3c565b90506115116060830187610e75565b81810360808301526115238186610e3c565b905081810360a08301526115378185610e3c565b905061154660c0830184610e75565b9897505050505050505056fea2646970667358221220a9348f9b8479a3ec71b11899fa588ac9c23179cee3a3f7c13e41d784a18bfdc364736f6c63430008100033",
  "immutableReferences": {},
  "source": "// SPDX-License-Identifier: GPL-3.0\npragma solidity >=0.7.0 <0.9.0;\n\n\ncontract PatientRegistry {\n    struct Patient {\n        uint256 id;\n        string name;\n        uint256 age;\n        string gender;\n        bool vaccineStatus;\n        string district;\n        string symptomsDetails;\n        bool isDead;\n        uint256 dateAdded; // Date the patient was added (for computing average death rate per day)\n    }\n\n    mapping(uint256 => Patient) public patients;\n    uint256 public patientCount;\n    mapping(string => uint256) public districtPatientCount; // Mapping for patient count in each district\n    mapping(string => uint256) public districtAgeSum; // Mapping for age sum in each district\n    mapping(string => uint256) public districtDeathCount; // Mapping for death count in each district\n\n    event PatientAdded(\n        uint256 indexed id,\n        string name,\n        uint256 age,\n        string gender,\n        bool vaccineStatus,\n        string district,\n        string symptomsDetails,\n        bool isDead\n    );\n\n    constructor() {\n        patientCount = 0;\n    }\n\n    function addPatient(\n        string memory _name,\n        uint256 _age,\n        string memory _gender,\n        bool _vaccineStatus,\n        string memory _district,\n        string memory _symptomsDetails,\n        bool _isDead,\n        uint256 _dateAdded\n    ) public {\n        patientCount++;\n        patients[patientCount] = Patient(\n            patientCount,\n            _name,\n            _age,\n            _gender,\n            _vaccineStatus,\n            _district,\n            _symptomsDetails,\n            _isDead,\n            _dateAdded\n        );\n        \n        // Update district data\n        districtPatientCount[_district]++;\n        districtAgeSum[_district] += _age;\n        if (_isDead) {\n            districtDeathCount[_district]++;\n        }\n\n        emit PatientAdded(\n            patientCount,\n            _name,\n            _age,\n            _gender,\n            _vaccineStatus,\n            _district,\n            _symptomsDetails,\n            _isDead\n        );\n    }\n\n    function getPatient(uint256 _id) public view returns (Patient memory) {\n        require(_id > 0 && _id <= patientCount, \"Invalid patient ID.\");\n        return patients[_id];\n    }\n}\n",
  "sourcePath": "/home/mahmudul/Desktop/sample/contracts/Election.sol",
  "compiler": {
    "name": "solc",
    "version": "0.8.16+commit.07a7930e.Emscripten.clang"
  },
  "schemaVersion": "3.4.16",
  "updatedAt": "2024-04-16T04:45:38.030Z",
  "devdoc": {
    "kind": "dev",
    "methods": {},
    "version": 1
  },
  "userdoc": {
    "kind": "user",
    "methods": {},
    "version": 1
  }
}