{
  "contractName": "PatientRegistry",
  "abi": [
    {
      "inputs": [],
      "stateMutability": "nonpayable",
      "type": "constructor"
    },
    {
      "anonymous": false,
      "inputs": [
        {
          "indexed": true,
          "internalType": "uint256",
          "name": "id",
          "type": "uint256"
        },
        {
          "indexed": false,
          "internalType": "string",
          "name": "name",
          "type": "string"
        },
        {
          "indexed": false,
          "internalType": "uint256",
          "name": "age",
          "type": "uint256"
        },
        {
          "indexed": false,
          "internalType": "string",
          "name": "gender",
          "type": "string"
        },
        {
          "indexed": false,
          "internalType": "bool",
          "name": "vaccineStatus",
          "type": "bool"
        },
        {
          "indexed": false,
          "internalType": "string",
          "name": "district",
          "type": "string"
        },
        {
          "indexed": false,
          "internalType": "string",
          "name": "symptomsDetails",
          "type": "string"
        },
        {
          "indexed": false,
          "internalType": "bool",
          "name": "isDead",
          "type": "bool"
        },
        {
          "indexed": false,
          "internalType": "uint256",
          "name": "vaccineDoses",
          "type": "uint256"
        }
      ],
      "name": "PatientAdded",
      "type": "event"
    },
    {
      "inputs": [
        {
          "internalType": "string",
          "name": "",
          "type": "string"
        }
      ],
      "name": "districtAgeSum",
      "outputs": [
        {
          "internalType": "uint256",
          "name": "",
          "type": "uint256"
        }
      ],
      "stateMutability": "view",
      "type": "function"
    },
    {
      "inputs": [
        {
          "internalType": "string",
          "name": "",
          "type": "string"
        }
      ],
      "name": "districtDeathCount",
      "outputs": [
        {
          "internalType": "uint256",
          "name": "",
          "type": "uint256"
        }
      ],
      "stateMutability": "view",
      "type": "function"
    },
    {
      "inputs": [
        {
          "internalType": "string",
          "name": "",
          "type": "string"
        }
      ],
      "name": "districtPatientCount",
      "outputs": [
        {
          "internalType": "uint256",
          "name": "",
          "type": "uint256"
        }
      ],
      "stateMutability": "view",
      "type": "function"
    },
    {
      "inputs": [],
      "name": "patientCount",
      "outputs": [
        {
          "internalType": "uint256",
          "name": "",
          "type": "uint256"
        }
      ],
      "stateMutability": "view",
      "type": "function"
    },
    {
      "inputs": [
        {
          "internalType": "uint256",
          "name": "",
          "type": "uint256"
        }
      ],
      "name": "patients",
      "outputs": [
        {
          "internalType": "uint256",
          "name": "id",
          "type": "uint256"
        },
        {
          "internalType": "string",
          "name": "name",
          "type": "string"
        },
        {
          "internalType": "uint256",
          "name": "age",
          "type": "uint256"
        },
        {
          "internalType": "string",
          "name": "gender",
          "type": "string"
        },
        {
          "internalType": "bool",
          "name": "vaccineStatus",
          "type": "bool"
        },
        {
          "internalType": "string",
          "name": "district",
          "type": "string"
        },
        {
          "internalType": "string",
          "name": "symptomsDetails",
          "type": "string"
        },
        {
          "internalType": "bool",
          "name": "isDead",
          "type": "bool"
        },
        {
          "internalType": "uint256",
          "name": "dateAdded",
          "type": "uint256"
        },
        {
          "internalType": "uint256",
          "name": "vaccineDoses",
          "type": "uint256"
        }
      ],
      "stateMutability": "view",
      "type": "function"
    },
    {
      "inputs": [
        {
          "internalType": "string",
          "name": "_name",
          "type": "string"
        },
        {
          "internalType": "uint256",
          "name": "_age",
          "type": "uint256"
        },
        {
          "internalType": "string",
          "name": "_gender",
          "type": "string"
        },
        {
          "internalType": "bool",
          "name": "_vaccineStatus",
          "type": "bool"
        },
        {
          "internalType": "string",
          "name": "_district",
          "type": "string"
        },
        {
          "internalType": "string",
          "name": "_symptomsDetails",
          "type": "string"
        },
        {
          "internalType": "bool",
          "name": "_isDead",
          "type": "bool"
        },
        {
          "internalType": "uint256",
          "name": "_dateAdded",
          "type": "uint256"
        },
        {
          "internalType": "uint256",
          "name": "_vaccineDoses",
          "type": "uint256"
        }
      ],
      "name": "addPatient",
      "outputs": [],
      "stateMutability": "nonpayable",
      "type": "function"
    },
    {
      "inputs": [
        {
          "internalType": "uint256",
          "name": "_id",
          "type": "uint256"
        }
      ],
      "name": "getPatient",
      "outputs": [
        {
          "components": [
            {
              "internalType": "uint256",
              "name": "id",
              "type": "uint256"
            },
            {
              "internalType": "string",
              "name": "name",
              "type": "string"
            },
            {
              "internalType": "uint256",
              "name": "age",
              "type": "uint256"
            },
            {
              "internalType": "string",
              "name": "gender",
              "type": "string"
            },
            {
              "internalType": "bool",
              "name": "vaccineStatus",
              "type": "bool"
            },
            {
              "internalType": "string",
              "name": "district",
              "type": "string"
            },
            {
              "internalType": "string",
              "name": "symptomsDetails",
              "type": "string"
            },
            {
              "internalType": "bool",
              "name": "isDead",
              "type": "bool"
            },
            {
              "internalType": "uint256",
              "name": "dateAdded",
              "type": "uint256"
            },
            {
              "internalType": "uint256",
              "name": "vaccineDoses",
              "type": "uint256"
            }
          ],
          "internalType": "struct PatientRegistry.Patient",
          "name": "",
          "type": "tuple"
        }
      ],
      "stateMutability": "view",
      "type": "function"
    },
    {
      "inputs": [
        {
          "internalType": "uint256",
          "name": "_id",
          "type": "uint256"
        },
        {
          "internalType": "address",
          "name": "requestor",
          "type": "address"
        }
      ],
      "name": "getVaccineCertificate",
      "outputs": [
        {
          "internalType": "string",
          "name": "",
          "type": "string"
        }
      ],
      "stateMutability": "view",
      "type": "function"
    }
  ],
  "bytecode": "0x608060405234801561001057600080fd5b50600060018190555061218b806100286000396000f3fe608060405234801561001057600080fd5b50600436106100885760003560e01c806393119a831161005b57806393119a8314610139578063a0303c4114610172578063c13bb96814610190578063d4527408146101c057610088565b80634da9a49d1461008d5780636cf0cac7146100bd5780637a28c315146100d95780637d3a679614610109575b600080fd5b6100a760048036038101906100a29190611111565b6101f0565b6040516100b491906111e1565b60405180910390f35b6100d760048036038101906100d29190611370565b610612565b005b6100f360048036038101906100ee91906114aa565b610846565b6040516101009190611502565b60405180910390f35b610123600480360381019061011e919061151d565b610874565b60405161013091906116a1565b60405180910390f35b610153600480360381019061014e919061151d565b610b98565b6040516101699a999897969594939291906116d2565b60405180910390f35b61017a610e26565b6040516101879190611502565b60405180910390f35b6101aa60048036038101906101a591906114aa565b610e2c565b6040516101b79190611502565b60405180910390f35b6101da60048036038101906101d591906114aa565b610e5a565b6040516101e79190611502565b60405180910390f35b606060008311801561020457506001548311155b610243576040517f08c379a000000000000000000000000000000000000000000000000000000000815260040161023a906117d6565b60405180910390fd5b6000806000858152602001908152602001600020604051806101400160405290816000820154815260200160018201805461027d90611825565b80601f01602080910402602001604051908101604052809291908181526020018280546102a990611825565b80156102f65780601f106102cb576101008083540402835291602001916102f6565b820191906000526020600020905b8154815290600101906020018083116102d957829003601f168201915b505050505081526020016002820154815260200160038201805461031990611825565b80601f016020809104026020016040519081016040528092919081815260200182805461034590611825565b80156103925780601f1061036757610100808354040283529160200191610392565b820191906000526020600020905b81548152906001019060200180831161037557829003601f168201915b505050505081526020016004820160009054906101000a900460ff161515151581526020016005820180546103c690611825565b80601f01602080910402602001604051908101604052809291908181526020018280546103f290611825565b801561043f5780601f106104145761010080835404028352916020019161043f565b820191906000526020600020905b81548152906001019060200180831161042257829003601f168201915b5050505050815260200160068201805461045890611825565b80601f016020809104026020016040519081016040528092919081815260200182805461048490611825565b80156104d15780601f106104a6576101008083540402835291602001916104d1565b820191906000526020600020905b8154815290600101906020018083116104b457829003601f168201915b505050505081526020016007820160009054906101000a900460ff16151515158152602001600882015481526020016009820154815250509050600281610120015114610553576040517f08c379a000000000000000000000000000000000000000000000000000000000815260040161054a906118c8565b60405180910390fd5b8273ffffffffffffffffffffffffffffffffffffffff163373ffffffffffffffffffffffffffffffffffffffff16146105c1576040517f08c379a00000000000000000000000000000000000000000000000000000000081526004016105b89061195a565b60405180910390fd5b60006105cc85610e88565b82602001516105de8460400151610e88565b84606001516040516020016105f69493929190611b7e565b6040516020818303038152906040529050809250505092915050565b6001600081548092919061062590611c22565b919050555060405180610140016040528060015481526020018a8152602001898152602001888152602001871515815260200186815260200185815260200184151581526020018381526020018281525060008060015481526020019081526020016000206000820151816000015560208201518160010190816106a99190611e16565b506040820151816002015560608201518160030190816106c99190611e16565b5060808201518160040160006101000a81548160ff02191690831515021790555060a08201518160050190816106ff9190611e16565b5060c08201518160060190816107159190611e16565b5060e08201518160070160006101000a81548160ff0219169083151502179055506101008201518160080155610120820151816009015590505060028560405161075f9190611ee8565b9081526020016040518091039020600081548092919061077e90611c22565b9190505550876003866040516107949190611ee8565b908152602001604051809103902060008282546107b19190611eff565b9250508190555082156107f3576004856040516107ce9190611ee8565b908152602001604051809103902060008154809291906107ed90611c22565b91905055505b6001547f10e66042050001be018ea89ce775b1aeb75ef4bd3032a376f7a43e10b59c40a68a8a8a8a8a8a8a89604051610833989796959493929190611f33565b60405180910390a2505050505050505050565b6002818051602081018201805184825260208301602085012081835280955050505050506000915090505481565b61087c611012565b60008211801561088e57506001548211155b6108cd576040517f08c379a00000000000000000000000000000000000000000000000000000000081526004016108c4906117d6565b60405180910390fd5b600080838152602001908152602001600020604051806101400160405290816000820154815260200160018201805461090590611825565b80601f016020809104026020016040519081016040528092919081815260200182805461093190611825565b801561097e5780601f106109535761010080835404028352916020019161097e565b820191906000526020600020905b81548152906001019060200180831161096157829003601f168201915b50505050508152602001600282015481526020016003820180546109a190611825565b80601f01602080910402602001604051908101604052809291908181526020018280546109cd90611825565b8015610a1a5780601f106109ef57610100808354040283529160200191610a1a565b820191906000526020600020905b8154815290600101906020018083116109fd57829003601f168201915b505050505081526020016004820160009054906101000a900460ff16151515158152602001600582018054610a4e90611825565b80601f0160208091040260200160405190810160405280929190818152602001828054610a7a90611825565b8015610ac75780601f10610a9c57610100808354040283529160200191610ac7565b820191906000526020600020905b815481529060010190602001808311610aaa57829003601f168201915b50505050508152602001600682018054610ae090611825565b80601f0160208091040260200160405190810160405280929190818152602001828054610b0c90611825565b8015610b595780601f10610b2e57610100808354040283529160200191610b59565b820191906000526020600020905b815481529060010190602001808311610b3c57829003601f168201915b505050505081526020016007820160009054906101000a900460ff16151515158152602001600882015481526020016009820154815250509050919050565b6000602052806000526040600020600091509050806000015490806001018054610bc190611825565b80601f0160208091040260200160405190810160405280929190818152602001828054610bed90611825565b8015610c3a5780601f10610c0f57610100808354040283529160200191610c3a565b820191906000526020600020905b815481529060010190602001808311610c1d57829003601f168201915b505050505090806002015490806003018054610c5590611825565b80601f0160208091040260200160405190810160405280929190818152602001828054610c8190611825565b8015610cce5780601f10610ca357610100808354040283529160200191610cce565b820191906000526020600020905b815481529060010190602001808311610cb157829003601f168201915b5050505050908060040160009054906101000a900460ff1690806005018054610cf690611825565b80601f0160208091040260200160405190810160405280929190818152602001828054610d2290611825565b8015610d6f5780601f10610d4457610100808354040283529160200191610d6f565b820191906000526020600020905b815481529060010190602001808311610d5257829003601f168201915b505050505090806006018054610d8490611825565b80601f0160208091040260200160405190810160405280929190818152602001828054610db090611825565b8015610dfd5780601f10610dd257610100808354040283529160200191610dfd565b820191906000526020600020905b815481529060010190602001808311610de057829003601f168201915b5050505050908060070160009054906101000a900460ff1690806008015490806009015490508a565b60015481565b6004818051602081018201805184825260208301602085012081835280955050505050506000915090505481565b6003818051602081018201805184825260208301602085012081835280955050505050506000915090505481565b606060008203610ecf576040518060400160405280600181526020017f3000000000000000000000000000000000000000000000000000000000000000815250905061100d565b600082905060005b60008214610f01578080610eea90611c22565b915050600a82610efa9190611ffc565b9150610ed7565b60008167ffffffffffffffff811115610f1d57610f1c61120d565b5b6040519080825280601f01601f191660200182016040528015610f4f5781602001600182028036833780820191505090505b50905060008290508593505b60008414611005578080610f6e9061202d565b9150506000600a8086610f819190611ffc565b610f8b9190612056565b85610f9691906120b0565b6030610fa291906120f1565b905060008160f81b905080848481518110610fc057610fbf612126565b5b60200101907effffffffffffffffffffffffffffffffffffffffffffffffffffffffffffff1916908160001a905350600a86610ffc9190611ffc565b95505050610f5b565b819450505050505b919050565b60405180610140016040528060008152602001606081526020016000815260200160608152602001600015158152602001606081526020016060815260200160001515815260200160008152602001600081525090565b6000604051905090565b600080fd5b600080fd5b6000819050919050565b6110908161107d565b811461109b57600080fd5b50565b6000813590506110ad81611087565b92915050565b600073ffffffffffffffffffffffffffffffffffffffff82169050919050565b60006110de826110b3565b9050919050565b6110ee816110d3565b81146110f957600080fd5b50565b60008135905061110b816110e5565b92915050565b6000806040838503121561112857611127611073565b5b60006111368582860161109e565b9250506020611147858286016110fc565b9150509250929050565b600081519050919050565b600082825260208201905092915050565b60005b8381101561118b578082015181840152602081019050611170565b60008484015250505050565b6000601f19601f8301169050919050565b60006111b382611151565b6111bd818561115c565b93506111cd81856020860161116d565b6111d681611197565b840191505092915050565b600060208201905081810360008301526111fb81846111a8565b905092915050565b600080fd5b600080fd5b7f4e487b7100000000000000000000000000000000000000000000000000000000600052604160045260246000fd5b61124582611197565b810181811067ffffffffffffffff821117156112645761126361120d565b5b80604052505050565b6000611277611069565b9050611283828261123c565b919050565b600067ffffffffffffffff8211156112a3576112a261120d565b5b6112ac82611197565b9050602081019050919050565b82818337600083830152505050565b60006112db6112d684611288565b61126d565b9050828152602081018484840111156112f7576112f6611208565b5b6113028482856112b9565b509392505050565b600082601f83011261131f5761131e611203565b5b813561132f8482602086016112c8565b91505092915050565b60008115159050919050565b61134d81611338565b811461135857600080fd5b50565b60008135905061136a81611344565b92915050565b60008060008060008060008060006101208a8c03121561139357611392611073565b5b60008a013567ffffffffffffffff8111156113b1576113b0611078565b5b6113bd8c828d0161130a565b99505060206113ce8c828d0161109e565b98505060408a013567ffffffffffffffff8111156113ef576113ee611078565b5b6113fb8c828d0161130a565b975050606061140c8c828d0161135b565b96505060808a013567ffffffffffffffff81111561142d5761142c611078565b5b6114398c828d0161130a565b95505060a08a013567ffffffffffffffff81111561145a57611459611078565b5b6114668c828d0161130a565b94505060c06114778c828d0161135b565b93505060e06114888c828d0161109e565b92505061010061149a8c828d0161109e565b9150509295985092959850929598565b6000602082840312156114c0576114bf611073565b5b600082013567ffffffffffffffff8111156114de576114dd611078565b5b6114ea8482850161130a565b91505092915050565b6114fc8161107d565b82525050565b600060208201905061151760008301846114f3565b92915050565b60006020828403121561153357611532611073565b5b60006115418482850161109e565b91505092915050565b6115538161107d565b82525050565b600082825260208201905092915050565b600061157582611151565b61157f8185611559565b935061158f81856020860161116d565b61159881611197565b840191505092915050565b6115ac81611338565b82525050565b6000610140830160008301516115cb600086018261154a565b50602083015184820360208601526115e3828261156a565b91505060408301516115f8604086018261154a565b5060608301518482036060860152611610828261156a565b915050608083015161162560808601826115a3565b5060a083015184820360a086015261163d828261156a565b91505060c083015184820360c0860152611657828261156a565b91505060e083015161166c60e08601826115a3565b5061010083015161168161010086018261154a565b5061012083015161169661012086018261154a565b508091505092915050565b600060208201905081810360008301526116bb81846115b2565b905092915050565b6116cc81611338565b82525050565b6000610140820190506116e8600083018d6114f3565b81810360208301526116fa818c6111a8565b9050611709604083018b6114f3565b818103606083015261171b818a6111a8565b905061172a60808301896116c3565b81810360a083015261173c81886111a8565b905081810360c083015261175081876111a8565b905061175f60e08301866116c3565b61176d6101008301856114f3565b61177b6101208301846114f3565b9b9a5050505050505050505050565b7f496e76616c69642070617469656e742049442e00000000000000000000000000600082015250565b60006117c060138361115c565b91506117cb8261178a565b602082019050919050565b600060208201905081810360008301526117ef816117b3565b9050919050565b7f4e487b7100000000000000000000000000000000000000000000000000000000600052602260045260246000fd5b6000600282049050600182168061183d57607f821691505b6020821081036118505761184f6117f6565b5b50919050565b7f50617469656e7420686173206e6f742072656365697665642074776f20646f7360008201527f6573206f662076616363696e652e000000000000000000000000000000000000602082015250565b60006118b2602e8361115c565b91506118bd82611856565b604082019050919050565b600060208201905081810360008301526118e1816118a5565b9050919050565b7f596f752063616e206f6e6c79207669657720796f7572206f776e20636572746960008201527f6669636174652e00000000000000000000000000000000000000000000000000602082015250565b600061194460278361115c565b915061194f826118e8565b604082019050919050565b6000602082019050818103600083015261197381611937565b9050919050565b600081905092915050565b7f56616363696e6520436572746966696361746520666f722050617469656e742060008201527f49443a2000000000000000000000000000000000000000000000000000000000602082015250565b60006119e160248361197a565b91506119ec82611985565b602482019050919050565b6000611a0282611151565b611a0c818561197a565b9350611a1c81856020860161116d565b80840191505092915050565b7f0a4e616d653a2000000000000000000000000000000000000000000000000000600082015250565b6000611a5e60078361197a565b9150611a6982611a28565b600782019050919050565b7f0a4167653a200000000000000000000000000000000000000000000000000000600082015250565b6000611aaa60068361197a565b9150611ab582611a74565b600682019050919050565b7f0a47656e6465723a200000000000000000000000000000000000000000000000600082015250565b6000611af660098361197a565b9150611b0182611ac0565b600982019050919050565b7f0a56616363696e65205374617475733a2052656365697665642074776f20646f60008201527f736573206f662076616363696e652e0000000000000000000000000000000000602082015250565b6000611b68602f8361197a565b9150611b7382611b0c565b602f82019050919050565b6000611b89826119d4565b9150611b9582876119f7565b9150611ba082611a51565b9150611bac82866119f7565b9150611bb782611a9d565b9150611bc382856119f7565b9150611bce82611ae9565b9150611bda82846119f7565b9150611be582611b5b565b915081905095945050505050565b7f4e487b7100000000000000000000000000000000000000000000000000000000600052601160045260246000fd5b6000611c2d8261107d565b91507fffffffffffffffffffffffffffffffffffffffffffffffffffffffffffffffff8203611c5f57611c5e611bf3565b5b600182019050919050565b60008190508160005260206000209050919050565b60006020601f8301049050919050565b600082821b905092915050565b600060088302611ccc7fffffffffffffffffffffffffffffffffffffffffffffffffffffffffffffffff82611c8f565b611cd68683611c8f565b95508019841693508086168417925050509392505050565b6000819050919050565b6000611d13611d0e611d098461107d565b611cee565b61107d565b9050919050565b6000819050919050565b611d2d83611cf8565b611d41611d3982611d1a565b848454611c9c565b825550505050565b600090565b611d56611d49565b611d61818484611d24565b505050565b5b81811015611d8557611d7a600082611d4e565b600181019050611d67565b5050565b601f821115611dca57611d9b81611c6a565b611da484611c7f565b81016020851015611db3578190505b611dc7611dbf85611c7f565b830182611d66565b50505b505050565b600082821c905092915050565b6000611ded60001984600802611dcf565b1980831691505092915050565b6000611e068383611ddc565b9150826002028217905092915050565b611e1f82611151565b67ffffffffffffffff811115611e3857611e3761120d565b5b611e428254611825565b611e4d828285611d89565b600060209050601f831160018114611e805760008415611e6e578287015190505b611e788582611dfa565b865550611ee0565b601f198416611e8e86611c6a565b60005b82811015611eb657848901518255600182019150602085019450602081019050611e91565b86831015611ed35784890151611ecf601f891682611ddc565b8355505b6001600288020188555050505b505050505050565b6000611ef482846119f7565b915081905092915050565b6000611f0a8261107d565b9150611f158361107d565b9250828201905080821115611f2d57611f2c611bf3565b5b92915050565b6000610100820190508181036000830152611f4e818b6111a8565b9050611f5d602083018a6114f3565b8181036040830152611f6f81896111a8565b9050611f7e60608301886116c3565b8181036080830152611f9081876111a8565b905081810360a0830152611fa481866111a8565b9050611fb360c08301856116c3565b611fc060e08301846114f3565b9998505050505050505050565b7f4e487b7100000000000000000000000000000000000000000000000000000000600052601260045260246000fd5b60006120078261107d565b91506120128361107d565b92508261202257612021611fcd565b5b828204905092915050565b60006120388261107d565b91506000820361204b5761204a611bf3565b5b600182039050919050565b60006120618261107d565b915061206c8361107d565b9250817fffffffffffffffffffffffffffffffffffffffffffffffffffffffffffffffff04831182151516156120a5576120a4611bf3565b5b828202905092915050565b60006120bb8261107d565b91506120c68361107d565b92508282039050818111156120de576120dd611bf3565b5b92915050565b600060ff82169050919050565b60006120fc826120e4565b9150612107836120e4565b9250828201905060ff8111156121205761211f611bf3565b5b92915050565b7f4e487b7100000000000000000000000000000000000000000000000000000000600052603260045260246000fdfea264697066735822122054ad1ed73ab6b9b848351867d9c91f14a8ed31c244358b5b81d050b0192e98a564736f6c63430008100033",
  "immutableReferences": {},
  "source": "// SPDX-License-Identifier: GPL-3.0\npragma solidity >=0.7.0 <0.9.0;\n\ncontract PatientRegistry {\n    struct Patient {\n        uint256 id;\n        string name;\n        uint256 age;\n        string gender;\n        bool vaccineStatus;\n        string district;\n        string symptomsDetails;\n        bool isDead;\n        uint256 dateAdded; // Date the patient was added (for computing average death rate per day)\n        uint256 vaccineDoses; // Number of vaccine doses received\n    }\n\n    mapping(uint256 => Patient) public patients;\n    uint256 public patientCount;\n    mapping(string => uint256) public districtPatientCount; // Mapping for patient count in each district\n    mapping(string => uint256) public districtAgeSum; // Mapping for age sum in each district\n    mapping(string => uint256) public districtDeathCount; // Mapping for death count in each district\n\n    event PatientAdded(\n        uint256 indexed id,\n        string name,\n        uint256 age,\n        string gender,\n        bool vaccineStatus,\n        string district,\n        string symptomsDetails,\n        bool isDead,\n        uint256 vaccineDoses\n    );\n\n    constructor() {\n        patientCount = 0;\n    }\n\n    function addPatient(\n        string memory _name,\n        uint256 _age,\n        string memory _gender,\n        bool _vaccineStatus,\n        string memory _district,\n        string memory _symptomsDetails,\n        bool _isDead,\n        uint256 _dateAdded,\n        uint256 _vaccineDoses\n    ) public {\n        patientCount++;\n        patients[patientCount] = Patient(\n            patientCount,\n            _name,\n            _age,\n            _gender,\n            _vaccineStatus,\n            _district,\n            _symptomsDetails,\n            _isDead,\n            _dateAdded,\n            _vaccineDoses\n        );\n\n        // Update district data\n        districtPatientCount[_district]++;\n        districtAgeSum[_district] += _age;\n        if (_isDead) {\n            districtDeathCount[_district]++;\n        }\n\n        emit PatientAdded(\n            patientCount,\n            _name,\n            _age,\n            _gender,\n            _vaccineStatus,\n            _district,\n            _symptomsDetails,\n            _isDead,\n            _vaccineDoses\n        );\n    }\n\n    function getPatient(uint256 _id) public view returns (Patient memory) {\n        require(_id > 0 && _id <= patientCount, \"Invalid patient ID.\");\n        return patients[_id];\n    }\n\n    // New function to retrieve the vaccine certificate\n    function getVaccineCertificate(uint256 _id, address requestor) public view returns (string memory) {\n        require(_id > 0 && _id <= patientCount, \"Invalid patient ID.\");\n        Patient memory patient = patients[_id];\n        require(patient.vaccineDoses == 2, \"Patient has not received two doses of vaccine.\");\n        require(msg.sender == requestor, \"You can only view your own certificate.\");\n\n        // Mimic the vaccine certificate (you can customize the content as needed)\n        string memory certificate = string(\n            abi.encodePacked(\n                \"Vaccine Certificate for Patient ID: \",\n                uint2str(_id),\n                \"\\nName: \",\n                patient.name,\n                \"\\nAge: \",\n                uint2str(patient.age),\n                \"\\nGender: \",\n                patient.gender,\n                \"\\nVaccine Status: Received two doses of vaccine.\"\n            )\n        );\n\n        return certificate;\n    }\n\n    // Helper function to convert uint to string\n    function uint2str(uint256 _i) internal pure returns (string memory) {\n        if (_i == 0) {\n            return \"0\";\n        }\n        uint256 j = _i;\n        uint256 length;\n        while (j != 0) {\n            length++;\n            j /= 10;\n        }\n        bytes memory bstr = new bytes(length);\n        uint256 k = length;\n        j = _i;\n        while (j != 0) {\n            k--;\n            uint8 temp = (48 + uint8(j - j / 10 * 10));\n            bytes1 b1 = bytes1(temp);\n            bstr[k] = b1;\n            j /= 10;\n        }\n        return string(bstr);\n    }\n}\n\n",
  "sourcePath": "/home/mahmudul/Desktop/sample/contracts/Election.sol",
  "compiler": {
    "name": "solc",
    "version": "0.8.16+commit.07a7930e.Emscripten.clang"
  },
  "schemaVersion": "3.4.16",
  "updatedAt": "2024-04-16T06:06:44.934Z",
  "devdoc": {
    "kind": "dev",
    "methods": {},
    "version": 1
  },
  "userdoc": {
    "kind": "user",
    "methods": {},
    "version": 1
  }
}