{
  "contractName": "Patient",
  "abi": [
    {
      "anonymous": false,
      "inputs": [
        {
          "indexed": true,
          "internalType": "address",
          "name": "patientAddress",
          "type": "address"
        },
        {
          "indexed": false,
          "internalType": "string",
          "name": "name",
          "type": "string"
        },
        {
          "indexed": false,
          "internalType": "uint256",
          "name": "age",
          "type": "uint256"
        },
        {
          "indexed": false,
          "internalType": "string",
          "name": "condition",
          "type": "string"
        }
      ],
      "name": "PatientAdded",
      "type": "event"
    },
    {
      "inputs": [
        {
          "internalType": "address",
          "name": "",
          "type": "address"
        }
      ],
      "name": "patients",
      "outputs": [
        {
          "internalType": "string",
          "name": "name",
          "type": "string"
        },
        {
          "internalType": "uint256",
          "name": "age",
          "type": "uint256"
        },
        {
          "internalType": "string",
          "name": "condition",
          "type": "string"
        }
      ],
      "stateMutability": "view",
      "type": "function"
    },
    {
      "inputs": [
        {
          "internalType": "string",
          "name": "_name",
          "type": "string"
        },
        {
          "internalType": "uint256",
          "name": "_age",
          "type": "uint256"
        },
        {
          "internalType": "string",
          "name": "_condition",
          "type": "string"
        }
      ],
      "name": "addPatient",
      "outputs": [],
      "stateMutability": "nonpayable",
      "type": "function"
    }
  ],
  "bytecode": "0x608060405234801561001057600080fd5b50610939806100206000396000f3fe608060405234801561001057600080fd5b50600436106100365760003560e01c80630869cfbc1461003b578063d65da44a1461006d575b600080fd5b6100556004803603810190610050919061031e565b610089565b604051610064939291906103f4565b60405180910390f35b6100876004803603810190610082919061059a565b6101c3565b005b60006020528060005260406000206000915090508060000180546100ac90610654565b80601f01602080910402602001604051908101604052809291908181526020018280546100d890610654565b80156101255780601f106100fa57610100808354040283529160200191610125565b820191906000526020600020905b81548152906001019060200180831161010857829003601f168201915b50505050509080600101549080600201805461014090610654565b80601f016020809104026020016040519081016040528092919081815260200182805461016c90610654565b80156101b95780601f1061018e576101008083540402835291602001916101b9565b820191906000526020600020905b81548152906001019060200180831161019c57829003601f168201915b5050505050905083565b6040518060600160405280848152602001838152602001828152506000803373ffffffffffffffffffffffffffffffffffffffff1673ffffffffffffffffffffffffffffffffffffffff16815260200190815260200160002060008201518160000190816102319190610831565b506020820151816001015560408201518160020190816102519190610831565b509050503373ffffffffffffffffffffffffffffffffffffffff167fb13f4fa753bee1d34ce0ab2a8d9e6a4a53cd0feb4b4c66d851c085c83e0b4abd84848460405161029f939291906103f4565b60405180910390a2505050565b6000604051905090565b600080fd5b600080fd5b600073ffffffffffffffffffffffffffffffffffffffff82169050919050565b60006102eb826102c0565b9050919050565b6102fb816102e0565b811461030657600080fd5b50565b600081359050610318816102f2565b92915050565b600060208284031215610334576103336102b6565b5b600061034284828501610309565b91505092915050565b600081519050919050565b600082825260208201905092915050565b60005b8381101561038557808201518184015260208101905061036a565b60008484015250505050565b6000601f19601f8301169050919050565b60006103ad8261034b565b6103b78185610356565b93506103c7818560208601610367565b6103d081610391565b840191505092915050565b6000819050919050565b6103ee816103db565b82525050565b6000606082019050818103600083015261040e81866103a2565b905061041d60208301856103e5565b818103604083015261042f81846103a2565b9050949350505050565b600080fd5b600080fd5b7f4e487b7100000000000000000000000000000000000000000000000000000000600052604160045260246000fd5b61047b82610391565b810181811067ffffffffffffffff8211171561049a57610499610443565b5b80604052505050565b60006104ad6102ac565b90506104b98282610472565b919050565b600067ffffffffffffffff8211156104d9576104d8610443565b5b6104e282610391565b9050602081019050919050565b82818337600083830152505050565b600061051161050c846104be565b6104a3565b90508281526020810184848401111561052d5761052c61043e565b5b6105388482856104ef565b509392505050565b600082601f83011261055557610554610439565b5b81356105658482602086016104fe565b91505092915050565b610577816103db565b811461058257600080fd5b50565b6000813590506105948161056e565b92915050565b6000806000606084860312156105b3576105b26102b6565b5b600084013567ffffffffffffffff8111156105d1576105d06102bb565b5b6105dd86828701610540565b93505060206105ee86828701610585565b925050604084013567ffffffffffffffff81111561060f5761060e6102bb565b5b61061b86828701610540565b9150509250925092565b7f4e487b7100000000000000000000000000000000000000000000000000000000600052602260045260246000fd5b6000600282049050600182168061066c57607f821691505b60208210810361067f5761067e610625565b5b50919050565b60008190508160005260206000209050919050565b60006020601f8301049050919050565b600082821b905092915050565b6000600883026106e77fffffffffffffffffffffffffffffffffffffffffffffffffffffffffffffffff826106aa565b6106f186836106aa565b95508019841693508086168417925050509392505050565b6000819050919050565b600061072e610729610724846103db565b610709565b6103db565b9050919050565b6000819050919050565b61074883610713565b61075c61075482610735565b8484546106b7565b825550505050565b600090565b610771610764565b61077c81848461073f565b505050565b5b818110156107a057610795600082610769565b600181019050610782565b5050565b601f8211156107e5576107b681610685565b6107bf8461069a565b810160208510156107ce578190505b6107e26107da8561069a565b830182610781565b50505b505050565b600082821c905092915050565b6000610808600019846008026107ea565b1980831691505092915050565b600061082183836107f7565b9150826002028217905092915050565b61083a8261034b565b67ffffffffffffffff81111561085357610852610443565b5b61085d8254610654565b6108688282856107a4565b600060209050601f83116001811461089b5760008415610889578287015190505b6108938582610815565b8655506108fb565b601f1984166108a986610685565b60005b828110156108d1578489015182556001820191506020850194506020810190506108ac565b868310156108ee57848901516108ea601f8916826107f7565b8355505b6001600288020188555050505b50505050505056fea26469706673582212209774345c56dd2521a1e376af3c9ff63f4d47041321da6889352d7af44148865f64736f6c63430008100033",
  "immutableReferences": {},
  "source": "// SPDX-License-Identifier: GPL-3.0\npragma solidity >=0.7.0 <0.9.0;\n\n\ncontract Patient {\n    struct PatientInfo {\n        string name;\n        uint256 age;\n        string condition;\n    }\n\n    mapping(address => PatientInfo) public patients;\n\n    event PatientAdded(address indexed patientAddress, string name, uint256 age, string condition);\n\n    function addPatient(string memory _name, uint256 _age, string memory _condition) public {\n        patients[msg.sender] = PatientInfo(_name, _age, _condition);\n        emit PatientAdded(msg.sender, _name, _age, _condition);\n    }\n}\n",
  "sourcePath": "/home/mahmudul/Desktop/sample/contracts/Election.sol",
  "compiler": {
    "name": "solc",
    "version": "0.8.16+commit.07a7930e.Emscripten.clang"
  },
  "schemaVersion": "3.4.16",
  "updatedAt": "2024-04-16T04:04:26.449Z",
  "devdoc": {
    "kind": "dev",
    "methods": {},
    "version": 1
  },
  "userdoc": {
    "kind": "user",
    "methods": {},
    "version": 1
  }
}