{
  "contractName": "PatientManagement",
  "abi": [
    {
      "inputs": [],
      "stateMutability": "nonpayable",
      "type": "constructor"
    },
    {
      "anonymous": false,
      "inputs": [
        {
          "indexed": false,
          "internalType": "string",
          "name": "patientId",
          "type": "string"
        }
      ],
      "name": "PatientAdded",
      "type": "event"
    },
    {
      "anonymous": false,
      "inputs": [
        {
          "indexed": false,
          "internalType": "string",
          "name": "patientId",
          "type": "string"
        }
      ],
      "name": "PatientUpdated",
      "type": "event"
    },
    {
      "inputs": [],
      "name": "admin",
      "outputs": [
        {
          "internalType": "address",
          "name": "",
          "type": "address"
        }
      ],
      "stateMutability": "view",
      "type": "function"
    },
    {
      "inputs": [
        {
          "internalType": "string",
          "name": "",
          "type": "string"
        },
        {
          "internalType": "uint256",
          "name": "",
          "type": "uint256"
        }
      ],
      "name": "districtPatientAges",
      "outputs": [
        {
          "internalType": "uint256",
          "name": "",
          "type": "uint256"
        }
      ],
      "stateMutability": "view",
      "type": "function"
    },
    {
      "inputs": [
        {
          "internalType": "string",
          "name": "",
          "type": "string"
        }
      ],
      "name": "districtPatientCounts",
      "outputs": [
        {
          "internalType": "uint256",
          "name": "",
          "type": "uint256"
        }
      ],
      "stateMutability": "view",
      "type": "function"
    },
    {
      "inputs": [
        {
          "internalType": "uint256",
          "name": "",
          "type": "uint256"
        }
      ],
      "name": "districts",
      "outputs": [
        {
          "internalType": "string",
          "name": "",
          "type": "string"
        }
      ],
      "stateMutability": "view",
      "type": "function"
    },
    {
      "inputs": [
        {
          "internalType": "string",
          "name": "",
          "type": "string"
        }
      ],
      "name": "patients",
      "outputs": [
        {
          "internalType": "string",
          "name": "id",
          "type": "string"
        },
        {
          "internalType": "string",
          "name": "name",
          "type": "string"
        },
        {
          "internalType": "uint256",
          "name": "age",
          "type": "uint256"
        },
        {
          "internalType": "string",
          "name": "gender",
          "type": "string"
        },
        {
          "internalType": "string",
          "name": "vaccineStatus",
          "type": "string"
        },
        {
          "internalType": "string",
          "name": "district",
          "type": "string"
        },
        {
          "internalType": "string",
          "name": "symptoms",
          "type": "string"
        },
        {
          "internalType": "bool",
          "name": "isDead",
          "type": "bool"
        }
      ],
      "stateMutability": "view",
      "type": "function"
    },
    {
      "inputs": [],
      "name": "totalDeaths",
      "outputs": [
        {
          "internalType": "uint256",
          "name": "",
          "type": "uint256"
        }
      ],
      "stateMutability": "view",
      "type": "function"
    },
    {
      "inputs": [],
      "name": "totalPatients",
      "outputs": [
        {
          "internalType": "uint256",
          "name": "",
          "type": "uint256"
        }
      ],
      "stateMutability": "view",
      "type": "function"
    },
    {
      "inputs": [
        {
          "internalType": "string",
          "name": "patientId",
          "type": "string"
        },
        {
          "internalType": "string",
          "name": "name",
          "type": "string"
        },
        {
          "internalType": "uint256",
          "name": "age",
          "type": "uint256"
        },
        {
          "internalType": "string",
          "name": "gender",
          "type": "string"
        },
        {
          "internalType": "string",
          "name": "vaccineStatus",
          "type": "string"
        },
        {
          "internalType": "string",
          "name": "district",
          "type": "string"
        },
        {
          "internalType": "string",
          "name": "symptoms",
          "type": "string"
        }
      ],
      "name": "addPatientData",
      "outputs": [],
      "stateMutability": "nonpayable",
      "type": "function"
    },
    {
      "inputs": [
        {
          "internalType": "string",
          "name": "patientId",
          "type": "string"
        },
        {
          "internalType": "string",
          "name": "vaccineStatus",
          "type": "string"
        },
        {
          "internalType": "bool",
          "name": "isDead",
          "type": "bool"
        }
      ],
      "name": "updatePatientData",
      "outputs": [],
      "stateMutability": "nonpayable",
      "type": "function"
    },
    {
      "inputs": [],
      "name": "getAverageDeathRatePerDay",
      "outputs": [
        {
          "internalType": "uint256",
          "name": "",
          "type": "uint256"
        }
      ],
      "stateMutability": "view",
      "type": "function"
    },
    {
      "inputs": [],
      "name": "getDistrictWithHighestCovidPatients",
      "outputs": [
        {
          "internalType": "string",
          "name": "",
          "type": "string"
        }
      ],
      "stateMutability": "view",
      "type": "function"
    },
    {
      "inputs": [],
      "name": "getMedianAgePerDistrict",
      "outputs": [
        {
          "internalType": "string[]",
          "name": "districtsList",
          "type": "string[]"
        },
        {
          "internalType": "uint256[]",
          "name": "medians",
          "type": "uint256[]"
        }
      ],
      "stateMutability": "view",
      "type": "function"
    },
    {
      "inputs": [],
      "name": "getPatientAgeGroupPercentages",
      "outputs": [
        {
          "internalType": "uint256",
          "name": "childrenPercentage",
          "type": "uint256"
        },
        {
          "internalType": "uint256",
          "name": "teenagersPercentage",
          "type": "uint256"
        },
        {
          "internalType": "uint256",
          "name": "youngPercentage",
          "type": "uint256"
        },
        {
          "internalType": "uint256",
          "name": "elderPercentage",
          "type": "uint256"
        }
      ],
      "stateMutability": "view",
      "type": "function"
    },
    {
      "inputs": [
        {
          "internalType": "string",
          "name": "patientId",
          "type": "string"
        }
      ],
      "name": "getPatientVaccineStatus",
      "outputs": [
        {
          "internalType": "string",
          "name": "",
          "type": "string"
        }
      ],
      "stateMutability": "view",
      "type": "function"
    }
  ],
  "bytecode": "0x60806040526000600555600060065534801561001a57600080fd5b50336000806101000a81548173ffffffffffffffffffffffffffffffffffffffff021916908373ffffffffffffffffffffffffffffffffffffffff1602179055506128c98061006a6000396000f3fe608060405234801561001057600080fd5b50600436106100ea5760003560e01c8063a987271d1161008c578063deb5ef0911610066578063deb5ef0914610269578063e65f610214610287578063e77995e0146102a6578063f851a440146102d6576100ea565b8063a987271d146101e4578063b258c87c14610202578063c6009d8414610232576100ea565b806372256767116100c85780637225676714610147578063743920ac146101775780638d33b75414610198578063a48798f3146101c8576100ea565b80632d066366146100ef578063524b3f0b1461010d578063548f2c0214610129575b600080fd5b6100f76102f4565b6040516101049190611733565b60405180910390f35b610127600480360381019061012291906118e0565b6102fa565b005b6101316106a7565b60405161013e91906119ea565b60405180910390f35b610161600480360381019061015c9190611a38565b6107c9565b60405161016e9190611733565b60405180910390f35b61017f610810565b60405161018f9493929190611a94565b60405180910390f35b6101b260048036038101906101ad9190611ad9565b610ab9565b6040516101bf91906119ea565b60405180910390f35b6101e260048036038101906101dd9190611b22565b610bc5565b005b6101ec610e42565b6040516101f99190611733565b60405180910390f35b61021c60048036038101906102179190611ad9565b610e78565b6040516102299190611733565b60405180910390f35b61024c60048036038101906102479190611ad9565b610ea6565b604051610260989796959493929190611c7b565b60405180910390f35b610271611241565b60405161027e9190611733565b60405180910390f35b61028f611247565b60405161029d929190611eed565b60405180910390f35b6102c060048036038101906102bb9190611f24565b611541565b6040516102cd91906119ea565b60405180910390f35b6102de6115ed565b6040516102eb9190611f92565b60405180910390f35b60055481565b60008054906101000a900473ffffffffffffffffffffffffffffffffffffffff1673ffffffffffffffffffffffffffffffffffffffff163373ffffffffffffffffffffffffffffffffffffffff1614610388576040517f08c379a000000000000000000000000000000000000000000000000000000000815260040161037f9061201f565b60405180910390fd5b60008351116103cc576040517f08c379a00000000000000000000000000000000000000000000000000000000081526004016103c39061208b565b60405180910390fd5b6040516020016103db90612102565b60405160208183030381529060405280519060200120826040516020016104029190612148565b60405160208183030381529060405280519060200120148061046d575060405160200161042e906121ab565b60405160208183030381529060405280519060200120826040516020016104559190612148565b60405160208183030381529060405280519060200120145b806104c157506040516020016104829061220c565b60405160208183030381529060405280519060200120826040516020016104a99190612148565b60405160208183030381529060405280519060200120145b610500576040517f08c379a00000000000000000000000000000000000000000000000000000000081526004016104f79061226d565b60405180910390fd5b60006001846040516105129190612148565b908152602001604051809103902090506000816000018054610533906122bc565b905011610575576040517f08c379a000000000000000000000000000000000000000000000000000000000815260040161056c90612339565b60405180910390fd5b828160040190816105869190612505565b508115158160070160009054906101000a900460ff1615151461066a5781156105fd57600560008154809291906105bc90612606565b91905055506002816005016040516105d491906126d1565b908152602001604051809103902060008154809291906105f3906126e8565b919050555061064d565b60056000815480929190610610906126e8565b919050555060028160050160405161062891906126d1565b9081526020016040518091039020600081548092919061064790612606565b91905055505b818160070160006101000a81548160ff0219169083151502179055505b7f853ee40be26a1facb2ddb0609c2fe04d174ab8de2d3d21a6cc0a01cc15eb23aa8460405161069991906119ea565b60405180910390a150505050565b606060008060405180602001604052806000815250905060005b6004805490508110156107c0576000600482815481106106e4576106e3612711565b5b9060005260206000200180546106f9906122bc565b80601f0160208091040260200160405190810160405280929190818152602001828054610725906122bc565b80156107725780601f1061074757610100808354040283529160200191610772565b820191906000526020600020905b81548152906001019060200180831161075557829003601f168201915b50505050509050600060028260405161078b9190612148565b9081526020016040518091039020549050848111156107ab578094508193505b505080806107b890612606565b9150506106c1565b50809250505090565b60038280516020810182018051848252602083016020850120818352809550505050505081815481106107fb57600080fd5b90600052602060002001600091509150505481565b60008060008060008060008060005b600480549050811015610a1c5760006004828154811061084257610841612711565b5b906000526020600020018054610857906122bc565b80601f0160208091040260200160405190810160405280929190818152602001828054610883906122bc565b80156108d05780601f106108a5576101008083540402835291602001916108d0565b820191906000526020600020905b8154815290600101906020018083116108b357829003601f168201915b5050505050905060006003826040516108e99190612148565b908152602001604051809103902080548060200260200160405190810160405280929190818152602001828054801561094157602002820191906000526020600020905b81548152602001906001019080831161092d575b5050505050905060005b8151811015610a0657600082828151811061096957610968612711565b5b60200260200101519050600d81101561098f57888061098790612606565b9950506109f2565b600d81101580156109a05750601481105b156109b85787806109b090612606565b9850506109f1565b601481101580156109c95750603281105b156109e15786806109d990612606565b9750506109f0565b85806109ec90612606565b9650505b5b5b5080806109fe90612606565b91505061094b565b5050508080610a1490612606565b91505061081f565b50600060065403610a3e57600080600080975097509750975050505050610ab3565b600654606485610a4e9190612740565b610a5891906127c9565b9750600654606484610a6a9190612740565b610a7491906127c9565b9650600654606483610a869190612740565b610a9091906127c9565b9550600654606482610aa29190612740565b610aac91906127c9565b9450505050505b90919293565b60606000600183604051610acd9190612148565b908152602001604051809103902090506000816000018054610aee906122bc565b905011610b30576040517f08c379a0000000000000000000000000000000000000000000000000000000008152600401610b2790612339565b60405180910390fd5b806004018054610b3f906122bc565b80601f0160208091040260200160405190810160405280929190818152602001828054610b6b906122bc565b8015610bb85780601f10610b8d57610100808354040283529160200191610bb8565b820191906000526020600020905b815481529060010190602001808311610b9b57829003601f168201915b5050505050915050919050565b6000875111610c09576040517f08c379a0000000000000000000000000000000000000000000000000000000008152600401610c009061208b565b60405180910390fd5b60405180610100016040528088815260200187815260200186815260200185815260200184815260200183815260200182815260200160001515815250600188604051610c569190612148565b90815260200160405180910390206000820151816000019081610c799190612505565b506020820151816001019081610c8f9190612505565b50604082015181600201556060820151816003019081610caf9190612505565b506080820151816004019081610cc59190612505565b5060a0820151816005019081610cdb9190612505565b5060c0820151816006019081610cf19190612505565b5060e08201518160070160006101000a81548160ff0219169083151502179055509050506000600283604051610d279190612148565b90815260200160405180910390205403610d7157600482908060018154018082558091505060019003906000526020600020016000909190919091509081610d6f9190612505565b505b600282604051610d819190612148565b90815260200160405180910390206000815480929190610da090612606565b9190505550600382604051610db59190612148565b908152602001604051809103902085908060018154018082558091505060019003906000526020600020016000909190919091505560066000815480929190610dfd90612606565b91905055507f81cd9fdc4d6ed16387894b82774c678fd9ad2001e0fab2e1722d01484833ebf887604051610e3191906119ea565b60405180910390a150505050505050565b60008060065403610e565760009050610e75565b6006546064600554610e689190612740565b610e7291906127c9565b90505b90565b6002818051602081018201805184825260208301602085012081835280955050505050506000915090505481565b600181805160208101820180518482526020830160208501208183528095505050505050600091509050806000018054610edf906122bc565b80601f0160208091040260200160405190810160405280929190818152602001828054610f0b906122bc565b8015610f585780601f10610f2d57610100808354040283529160200191610f58565b820191906000526020600020905b815481529060010190602001808311610f3b57829003601f168201915b505050505090806001018054610f6d906122bc565b80601f0160208091040260200160405190810160405280929190818152602001828054610f99906122bc565b8015610fe65780601f10610fbb57610100808354040283529160200191610fe6565b820191906000526020600020905b815481529060010190602001808311610fc957829003601f168201915b505050505090806002015490806003018054611001906122bc565b80601f016020809104026020016040519081016040528092919081815260200182805461102d906122bc565b801561107a5780601f1061104f5761010080835404028352916020019161107a565b820191906000526020600020905b81548152906001019060200180831161105d57829003601f168201915b50505050509080600401805461108f906122bc565b80601f01602080910402602001604051908101604052809291908181526020018280546110bb906122bc565b80156111085780601f106110dd57610100808354040283529160200191611108565b820191906000526020600020905b8154815290600101906020018083116110eb57829003601f168201915b50505050509080600501805461111d906122bc565b80601f0160208091040260200160405190810160405280929190818152602001828054611149906122bc565b80156111965780601f1061116b57610100808354040283529160200191611196565b820191906000526020600020905b81548152906001019060200180831161117957829003601f168201915b5050505050908060060180546111ab906122bc565b80601f01602080910402602001604051908101604052809291908181526020018280546111d7906122bc565b80156112245780601f106111f957610100808354040283529160200191611224565b820191906000526020600020905b81548152906001019060200180831161120757829003601f168201915b5050505050908060070160009054906101000a900460ff16905088565b60065481565b60608060048054905067ffffffffffffffff8111156112695761126861177d565b5b60405190808252806020026020018201604052801561129c57816020015b60608152602001906001900390816112875790505b50915060048054905067ffffffffffffffff8111156112be576112bd61177d565b5b6040519080825280602002602001820160405280156112ec5781602001602082028036833780820191505090505b50905060005b60048054905081101561153c5760006004828154811061131557611314612711565b5b90600052602060002001805461132a906122bc565b80601f0160208091040260200160405190810160405280929190818152602001828054611356906122bc565b80156113a35780601f10611378576101008083540402835291602001916113a3565b820191906000526020600020905b81548152906001019060200180831161138657829003601f168201915b5050505050905060006003826040516113bc9190612148565b908152602001604051809103902080548060200260200160405190810160405280929190818152602001828054801561141457602002820191906000526020600020905b815481526020019060010190808311611400575b50505050509050600081905061142981611611565b60008082519050600060028261143f91906127fa565b036114bb5760028360028361145491906127c9565b8151811061146557611464612711565b5b602002602001015184600160028561147d91906127c9565b611487919061282b565b8151811061149857611497612711565b5b60200260200101516114aa919061285f565b6114b491906127c9565b91506114e5565b826002826114c991906127c9565b815181106114da576114d9612711565b5b602002602001015191505b848887815181106114f9576114f8612711565b5b60200260200101819052508187878151811061151857611517612711565b5b6020026020010181815250505050505050808061153490612606565b9150506112f2565b509091565b6004818154811061155157600080fd5b90600052602060002001600091509050805461156c906122bc565b80601f0160208091040260200160405190810160405280929190818152602001828054611598906122bc565b80156115e55780601f106115ba576101008083540402835291602001916115e5565b820191906000526020600020905b8154815290600101906020018083116115c857829003601f168201915b505050505081565b60008054906101000a900473ffffffffffffffffffffffffffffffffffffffff1681565b60005b815181101561171657600060018261162c919061285f565b90505b82518110156117025782818151811061164b5761164a612711565b5b602002602001015183838151811061166657611665612711565b5b602002602001015111156116ef57600083838151811061168957611688612711565b5b602002602001015190508382815181106116a6576116a5612711565b5b60200260200101518484815181106116c1576116c0612711565b5b602002602001018181525050808483815181106116e1576116e0612711565b5b602002602001018181525050505b80806116fa90612606565b91505061162f565b50808061170e90612606565b915050611614565b5050565b6000819050919050565b61172d8161171a565b82525050565b60006020820190506117486000830184611724565b92915050565b6000604051905090565b600080fd5b600080fd5b600080fd5b600080fd5b6000601f19601f8301169050919050565b7f4e487b7100000000000000000000000000000000000000000000000000000000600052604160045260246000fd5b6117b58261176c565b810181811067ffffffffffffffff821117156117d4576117d361177d565b5b80604052505050565b60006117e761174e565b90506117f382826117ac565b919050565b600067ffffffffffffffff8211156118135761181261177d565b5b61181c8261176c565b9050602081019050919050565b82818337600083830152505050565b600061184b611846846117f8565b6117dd565b90508281526020810184848401111561186757611866611767565b5b611872848285611829565b509392505050565b600082601f83011261188f5761188e611762565b5b813561189f848260208601611838565b91505092915050565b60008115159050919050565b6118bd816118a8565b81146118c857600080fd5b50565b6000813590506118da816118b4565b92915050565b6000806000606084860312156118f9576118f8611758565b5b600084013567ffffffffffffffff8111156119175761191661175d565b5b6119238682870161187a565b935050602084013567ffffffffffffffff8111156119445761194361175d565b5b6119508682870161187a565b9250506040611961868287016118cb565b9150509250925092565b600081519050919050565b600082825260208201905092915050565b60005b838110156119a557808201518184015260208101905061198a565b60008484015250505050565b60006119bc8261196b565b6119c68185611976565b93506119d6818560208601611987565b6119df8161176c565b840191505092915050565b60006020820190508181036000830152611a0481846119b1565b905092915050565b611a158161171a565b8114611a2057600080fd5b50565b600081359050611a3281611a0c565b92915050565b60008060408385031215611a4f57611a4e611758565b5b600083013567ffffffffffffffff811115611a6d57611a6c61175d565b5b611a798582860161187a565b9250506020611a8a85828601611a23565b9150509250929050565b6000608082019050611aa96000830187611724565b611ab66020830186611724565b611ac36040830185611724565b611ad06060830184611724565b95945050505050565b600060208284031215611aef57611aee611758565b5b600082013567ffffffffffffffff811115611b0d57611b0c61175d565b5b611b198482850161187a565b91505092915050565b600080600080600080600060e0888a031215611b4157611b40611758565b5b600088013567ffffffffffffffff811115611b5f57611b5e61175d565b5b611b6b8a828b0161187a565b975050602088013567ffffffffffffffff811115611b8c57611b8b61175d565b5b611b988a828b0161187a565b9650506040611ba98a828b01611a23565b955050606088013567ffffffffffffffff811115611bca57611bc961175d565b5b611bd68a828b0161187a565b945050608088013567ffffffffffffffff811115611bf757611bf661175d565b5b611c038a828b0161187a565b93505060a088013567ffffffffffffffff811115611c2457611c2361175d565b5b611c308a828b0161187a565b92505060c088013567ffffffffffffffff811115611c5157611c5061175d565b5b611c5d8a828b0161187a565b91505092959891949750929550565b611c75816118a8565b82525050565b6000610100820190508181036000830152611c96818b6119b1565b90508181036020830152611caa818a6119b1565b9050611cb96040830189611724565b8181036060830152611ccb81886119b1565b90508181036080830152611cdf81876119b1565b905081810360a0830152611cf381866119b1565b905081810360c0830152611d0781856119b1565b9050611d1660e0830184611c6c565b9998505050505050505050565b600081519050919050565b600082825260208201905092915050565b6000819050602082019050919050565b600082825260208201905092915050565b6000611d6b8261196b565b611d758185611d4f565b9350611d85818560208601611987565b611d8e8161176c565b840191505092915050565b6000611da58383611d60565b905092915050565b6000602082019050919050565b6000611dc582611d23565b611dcf8185611d2e565b935083602082028501611de185611d3f565b8060005b85811015611e1d5784840389528151611dfe8582611d99565b9450611e0983611dad565b925060208a01995050600181019050611de5565b50829750879550505050505092915050565b600081519050919050565b600082825260208201905092915050565b6000819050602082019050919050565b611e648161171a565b82525050565b6000611e768383611e5b565b60208301905092915050565b6000602082019050919050565b6000611e9a82611e2f565b611ea48185611e3a565b9350611eaf83611e4b565b8060005b83811015611ee0578151611ec78882611e6a565b9750611ed283611e82565b925050600181019050611eb3565b5085935050505092915050565b60006040820190508181036000830152611f078185611dba565b90508181036020830152611f1b8184611e8f565b90509392505050565b600060208284031215611f3a57611f39611758565b5b6000611f4884828501611a23565b91505092915050565b600073ffffffffffffffffffffffffffffffffffffffff82169050919050565b6000611f7c82611f51565b9050919050565b611f8c81611f71565b82525050565b6000602082019050611fa76000830184611f83565b92915050565b7f4f6e6c792061646d696e2063616e20706572666f726d2074686973206163746960008201527f6f6e000000000000000000000000000000000000000000000000000000000000602082015250565b6000612009602283611976565b915061201482611fad565b604082019050919050565b6000602082019050818103600083015261203881611ffc565b9050919050565b7f50617469656e742049442063616e6e6f7420626520656d707479000000000000600082015250565b6000612075601a83611976565b91506120808261203f565b602082019050919050565b600060208201905081810360008301526120a481612068565b9050919050565b600081905092915050565b7f6e6f745f76616363696e61746564000000000000000000000000000000000000600082015250565b60006120ec600e836120ab565b91506120f7826120b6565b600e82019050919050565b600061210d826120df565b9150819050919050565b60006121228261196b565b61212c81856120ab565b935061213c818560208601611987565b80840191505092915050565b60006121548284612117565b915081905092915050565b7f6f6e655f646f7365000000000000000000000000000000000000000000000000600082015250565b60006121956008836120ab565b91506121a08261215f565b600882019050919050565b60006121b682612188565b9150819050919050565b7f74776f5f646f7365000000000000000000000000000000000000000000000000600082015250565b60006121f66008836120ab565b9150612201826121c0565b600882019050919050565b6000612217826121e9565b9150819050919050565b7f496e76616c69642076616363696e652073746174757300000000000000000000600082015250565b6000612257601683611976565b915061226282612221565b602082019050919050565b600060208201905081810360008301526122868161224a565b9050919050565b7f4e487b7100000000000000000000000000000000000000000000000000000000600052602260045260246000fd5b600060028204905060018216806122d457607f821691505b6020821081036122e7576122e661228d565b5b50919050565b7f50617469656e74206e6f7420666f756e64000000000000000000000000000000600082015250565b6000612323601183611976565b915061232e826122ed565b602082019050919050565b6000602082019050818103600083015261235281612316565b9050919050565b60008190508160005260206000209050919050565b60006020601f8301049050919050565b600082821b905092915050565b6000600883026123bb7fffffffffffffffffffffffffffffffffffffffffffffffffffffffffffffffff8261237e565b6123c5868361237e565b95508019841693508086168417925050509392505050565b6000819050919050565b60006124026123fd6123f88461171a565b6123dd565b61171a565b9050919050565b6000819050919050565b61241c836123e7565b61243061242882612409565b84845461238b565b825550505050565b600090565b612445612438565b612450818484612413565b505050565b5b818110156124745761246960008261243d565b600181019050612456565b5050565b601f8211156124b95761248a81612359565b6124938461236e565b810160208510156124a2578190505b6124b66124ae8561236e565b830182612455565b50505b505050565b600082821c905092915050565b60006124dc600019846008026124be565b1980831691505092915050565b60006124f583836124cb565b9150826002028217905092915050565b61250e8261196b565b67ffffffffffffffff8111156125275761252661177d565b5b61253182546122bc565b61253c828285612478565b600060209050601f83116001811461256f576000841561255d578287015190505b61256785826124e9565b8655506125cf565b601f19841661257d86612359565b60005b828110156125a557848901518255600182019150602085019450602081019050612580565b868310156125c257848901516125be601f8916826124cb565b8355505b6001600288020188555050505b505050505050565b7f4e487b7100000000000000000000000000000000000000000000000000000000600052601160045260246000fd5b60006126118261171a565b91507fffffffffffffffffffffffffffffffffffffffffffffffffffffffffffffffff8203612643576126426125d7565b5b600182019050919050565b6000815461265b816122bc565b61266581866120ab565b945060018216600081146126805760018114612695576126c8565b60ff19831686528115158202860193506126c8565b61269e85612359565b60005b838110156126c0578154818901526001820191506020810190506126a1565b838801955050505b50505092915050565b60006126dd828461264e565b915081905092915050565b60006126f38261171a565b915060008203612706576127056125d7565b5b600182039050919050565b7f4e487b7100000000000000000000000000000000000000000000000000000000600052603260045260246000fd5b600061274b8261171a565b91506127568361171a565b9250817fffffffffffffffffffffffffffffffffffffffffffffffffffffffffffffffff048311821515161561278f5761278e6125d7565b5b828202905092915050565b7f4e487b7100000000000000000000000000000000000000000000000000000000600052601260045260246000fd5b60006127d48261171a565b91506127df8361171a565b9250826127ef576127ee61279a565b5b828204905092915050565b60006128058261171a565b91506128108361171a565b9250826128205761281f61279a565b5b828206905092915050565b60006128368261171a565b91506128418361171a565b9250828203905081811115612859576128586125d7565b5b92915050565b600061286a8261171a565b91506128758361171a565b925082820190508082111561288d5761288c6125d7565b5b9291505056fea26469706673582212207f6c4d1d0635709b320a9a6d185a3fd8c15cab303088980a92cb56a31c41960a64736f6c63430008100033",
  "immutableReferences": {},
  "source": "// SPDX-License-Identifier: GPL-3.0\npragma solidity >=0.7.0 <0.9.0;\n\ncontract PatientManagement {\n    struct Patient {\n        string id;\n        string name;\n        uint age;\n        string gender;\n        string vaccineStatus;\n        string district;\n        string symptoms;\n        bool isDead;\n    }\n\n    address public admin;\n    mapping(string => Patient) public patients;\n    mapping(string => uint) public districtPatientCounts;\n    mapping(string => uint[]) public districtPatientAges;\n\n    string[] public districts;\n    uint public totalDeaths = 0;\n    uint public totalPatients = 0;\n\n    event PatientAdded(string patientId);\n    event PatientUpdated(string patientId);\n\n    modifier onlyAdmin() {\n        require(msg.sender == admin, \"Only admin can perform this action\");\n        _;\n    }\n\n    constructor() {\n        admin = msg.sender;\n    }\n\n    function addPatientData(\n        string memory patientId,\n        string memory name,\n        uint age,\n        string memory gender,\n        string memory vaccineStatus,\n        string memory district,\n        string memory symptoms\n    ) public {\n        require(bytes(patientId).length > 0, \"Patient ID cannot be empty\");\n\n        // Create a new patient and save it in the patients mapping\n        patients[patientId] = Patient(\n            patientId,\n            name,\n            age,\n            gender,\n            vaccineStatus,\n            district,\n            symptoms,\n            false // Initial isDead value is false\n        );\n\n        // Increment patient count and add age to districtPatientAges mapping\n        if (districtPatientCounts[district] == 0) {\n            districts.push(district);\n        }\n        districtPatientCounts[district]++;\n        districtPatientAges[district].push(age);\n        totalPatients++;\n\n        emit PatientAdded(patientId);\n    }\n\n    function updatePatientData(\n        string memory patientId,\n        string memory vaccineStatus,\n        bool isDead\n    ) public onlyAdmin {\n        require(bytes(patientId).length > 0, \"Patient ID cannot be empty\");\n        require(\n            keccak256(abi.encodePacked(vaccineStatus)) == keccak256(abi.encodePacked(\"not_vaccinated\")) ||\n            keccak256(abi.encodePacked(vaccineStatus)) == keccak256(abi.encodePacked(\"one_dose\")) ||\n            keccak256(abi.encodePacked(vaccineStatus)) == keccak256(abi.encodePacked(\"two_dose\")),\n            \"Invalid vaccine status\"\n        );\n\n        Patient storage patient = patients[patientId];\n        require(bytes(patient.id).length > 0, \"Patient not found\");\n\n        // Update vaccine status and death status\n        patient.vaccineStatus = vaccineStatus;\n        if (patient.isDead != isDead) {\n            if (isDead) {\n                totalDeaths++;\n                districtPatientCounts[patient.district]--;\n            } else {\n                totalDeaths--;\n                districtPatientCounts[patient.district]++;\n            }\n            patient.isDead = isDead;\n        }\n\n        emit PatientUpdated(patientId);\n    }\n\n    function getAverageDeathRatePerDay() public view returns (uint) {\n        // Calculate average death rate per day\n        if (totalPatients == 0) {\n            return 0;\n        }\n        return (totalDeaths * 100) / totalPatients;\n    }\n\n    function getDistrictWithHighestCovidPatients() public view returns (string memory) {\n        // Determine the district with the highest number of patients\n        uint maxCount = 0;\n        string memory maxDistrict = \"\";\n\n        for (uint i = 0; i < districts.length; i++) {\n            string memory district = districts[i];\n            uint count = districtPatientCounts[district];\n            if (count > maxCount) {\n                maxCount = count;\n                maxDistrict = district;\n            }\n        }\n\n        return maxDistrict;\n    }\n\n    function getMedianAgePerDistrict() public view returns (string[] memory districtsList, uint[] memory medians) {\n        // Calculate the median age per district\n        districtsList = new string[](districts.length);\n        medians = new uint[](districts.length);\n\n        for (uint i = 0; i < districts.length; i++) {\n            string memory district = districts[i];\n            uint[] memory ages = districtPatientAges[district];\n\n            // Sort ages array\n            uint[] memory sortedAges = ages;\n            sort(sortedAges);\n\n            uint medianAge;\n            uint length = sortedAges.length;\n            if (length % 2 == 0) {\n                medianAge = (sortedAges[length / 2 - 1] + sortedAges[length / 2]) / 2;\n            } else {\n                medianAge = sortedAges[length / 2];\n            }\n\n            districtsList[i] = district;\n            medians[i] = medianAge;\n        }\n\n        return (districtsList, medians);\n    }\n\n    function getPatientAgeGroupPercentages() public view returns (uint childrenPercentage, uint teenagersPercentage, uint youngPercentage, uint elderPercentage) {\n        // Calculate age group percentages\n        uint totalChildren = 0;\n        uint totalTeenagers = 0;\n        uint totalYoung = 0;\n        uint totalElder = 0;\n\n        for (uint i = 0; i < districts.length; i++) {\n            string memory district = districts[i];\n            uint[] memory ages = districtPatientAges[district];\n\n            for (uint j = 0; j < ages.length; j++) {\n                uint age = ages[j];\n                if (age < 13) {\n                    totalChildren++;\n                } else if (age >= 13 && age < 20) {\n                    totalTeenagers++;\n                } else if (age >= 20 && age < 50) {\n                    totalYoung++;\n                } else {\n                    totalElder++;\n                }\n            }\n        }\n\n        // Calculate percentages\n        if (totalPatients == 0) {\n            return (0, 0, 0, 0);\n        }\n\n        childrenPercentage = (totalChildren * 100) / totalPatients;\n        teenagersPercentage = (totalTeenagers * 100) / totalPatients;\n        youngPercentage = (totalYoung * 100) / totalPatients;\n        elderPercentage = (totalElder * 100) / totalPatients;\n\n        return (childrenPercentage, teenagersPercentage, youngPercentage, elderPercentage);\n    }\n\n    function getPatientVaccineStatus(string memory patientId) public view returns (string memory) {\n        Patient storage patient = patients[patientId];\n        require(bytes(patient.id).length > 0, \"Patient not found\");\n        return patient.vaccineStatus;\n    }\n\n    function sort(uint[] memory data) internal pure {\n        // Simple bubble sort\n        for (uint i = 0; i < data.length; i++) {\n            for (uint j = i + 1; j < data.length; j++) {\n                if (data[i] > data[j]) {\n                    uint temp = data[i];\n                    data[i] = data[j];\n                    data[j] = temp;\n                }\n            }\n        }\n    }\n}\n\n",
  "sourcePath": "/home/mahmudul/Desktop/sample/contracts/Election.sol",
  "compiler": {
    "name": "solc",
    "version": "0.8.16+commit.07a7930e.Emscripten.clang"
  },
  "schemaVersion": "3.4.16",
  "updatedAt": "2024-04-18T09:19:53.860Z",
  "devdoc": {
    "kind": "dev",
    "methods": {},
    "version": 1
  },
  "userdoc": {
    "kind": "user",
    "methods": {},
    "version": 1
  }
}